:020000040800F2
:1000000000000C2081170008A9160008AF16000890
:10001000B5160008BB160008C1160008D117000865
:10002000000000000000000000000000C7160008EB
:10003000D516000800000000E3160008F1160008BD
:10004000D1170008D1170008D1170008D1170008F0
:10005000D1170008D1170008D1170008D1170008E0
:10006000D1170008D1170008D1170008D1170008D0
:10007000D1170008D1170008D1170008D1170008C0
:10008000D1170008D1170008D1170008D1170008B0
:10009000D1170008D1170008D1170008D1170008A0
:1000A000D1170008D1170008D1170008FD16000865
:1000B00000000000D1170008D1170008D117000870
:1000C000D1170008D1170008D1170008D117000870
:1000D000D1170008D1170008D1170008D117000860
:1000E000D1170008D1170008D1170008D117000850
:1000F000D1170008D1170008D1170008D117000840
:10010000D1170008D1170008D1170008D11700082F
:10011000D1170008D1170008D1170008D11700081F
:10012000D1170008D1170008D1170008D11700080F
:10013000D1170008D1170008D1170008D1170008FF
:10014000D1170008D1170008D1170008D1170008EF
:10015000D1170008D1170008D1170008D1170008DF
:10016000D1170008D1170008D1170008D1170008CF
:10017000D1170008D1170008D1170008D1170008BF
:10018000D1170008D1170008D1170008D1170008AF
:10019000D1170008D1170008D1170008D11700089F
:1001A000D1170008D1170008D1170008D11700088F
:1001B000D117000800000000D1170008D11700086F
:1001C000D117000800000000D1170008D11700085F
:1001D000D1170008D1170008D1170008D11700085F
:1001E000D1170008D1170008D1170008D11700084F
:1001F0000000000000000000D1170008D11700081F
:10020000D1170008D1170008D1170008D11700082E
:10021000D1170008D1170008D1170008D11700081E
:10022000D1170008D1170008D1170008D11700080E
:04023000D1170008DA
:1002340010B5054C237833B9044B13B1044800E0DE
:1002440000BF0123237010BD28000020000000001F
:100254002868000808B5034B1BB10349034800E0B4
:1002640000BF08BD000000002C0000202868000822
:1002740080B485B000AF0023FB6020E0FB687B60A6
:100284000023BB6010E07B6803F00103002B05D062
:100294007B685A080F4B53407B6002E07B685B0825
:1002A4007B60BB680133BB60BB68072BEBD90A4991
:1002B400FB687A6841F82320FB680133FB60FB6824
:1002C400FF2BDBD900BF00BF1437BD465DF8047BAC
:1002D400704700BF2083B8ED4400002080B485B08F
:1002E40000AFF860B9607A6012E0FB681B781A46C8
:1002F4007B685340DBB20C4A52F823207B681B0A0C
:1003040053407B60BB68013BBB60FB680133FB600F
:10031400BB68002BE9D17B68DB4318461437BD4624
:100324005DF8047B704700BF4400002080B58AB0AC
:1003340000AF07F1140300221A605A609A60DA6071
:100344001A614D4BD3F88C304B4A43F00403C2F886
:100354008C30494BD3F88C3003F004033B613B6988
:10036400454BD3F88C30444A43F08003C2F88C30B8
:10037400414BD3F88C3003F08003FB60FB683E4BA9
:10038400D3F88C303C4A43F00103C2F88C303A4B2A
:10039400D3F88C3003F00103BB60BB68364BD3F851
:1003A4008C30354A43F00203C2F88C30324BD3F818
:1003B4008C3003F002037B607B6800224FF4805191
:1003C4002E4802F0B3FA002208212D4802F0AEFABA
:1003D4004FF460437B610323BB610023FB6107F19E
:1003E40014031946274801F075FE03237B61032398
:1003F400BB610023FB6107F114031946204801F097
:1004040069FE49F6FF737B610323BB610023FB6133
:1004140007F1140319461C4801F05CFE40F2F7731F
:100424007B610323BB610023FB6107F114031946BD
:10043400124801F04FFE4FF480537B610123BB61EE
:100444000023FB6100233B6207F1140319460B48A8
:1004540001F040FE08237B610123BB610023FB61A3
:1004640000233B6207F114031946054801F032FEEC
:1004740000BF2837BD4680BD000C0246000402427E
:10048400001C0242000802420000024280B500AF94
:10049400002002F07BFA0346002B01D000F0E4FBBD
:1004A40002F09EFA0346002B01D000F0DDFB00BFF2
:1004B40080BD000080B500AF0D4B0E4A1A600C4B96
:1004C40008225A600A4B40F6FF72DA60084B40F685
:1004D400FF729A60064B0A221A61054802F090FAEC
:1004E4000346002B01D000F0BFFB00BF80BD00BF5E
:1004F4004C0400200030004080B487B000AF786026
:10050400396000237B6100233B613B685A1C3A60DD
:100514001B78FB607B69DA01FB6803F07F031343FC
:100524007B613B6901333B61FB6803F08003002B73
:10053400EBD17B687A691A603B6918461C37BD4663
:100544005DF8047B704780B58AB000AFF860B9608D
:100554007A607B68002B01D1002362E0FB681B7882
:10056400FB7601233B620023FB613B6A5A1C3A621F
:10057400FA6813441B78BB76BA7EFB7E9A4244D158
:10058400FA683B6A13441B78002B0AD1FB695A1C96
:10059400FA61BA681344FA7E1A703B6A01333B620B
:1005A4003AE0FA683B6A1A4407F114031146184604
:1005B400FFF7A2FF03461A463B6A13443B62FA68FC
:1005C4003B6A1A4407F1100311461846FFF794FFDB
:1005D40003461A463B6A13443B6200237B620FE0E6
:1005E4003B69FA69D31ABA681A44B968FB690B44BF
:1005F40012781A70FB690133FB617B6A01337B62F9
:100604007B697A6A9A42EBD306E0FB695A1CFA6169
:10061400BA681344BA7E1A703A6A7B689A42A4D3C1
:10062400FB6918462837BD4680BD000080B400AF82
:10063400BFF34F8F00BF064BDB6803F4E06204494D
:10064400044B1343CB60BFF34F8F00BF00BFFDE7E4
:1006540000ED00E00400FA0580B584B000AF00238B
:10066400FB600023BB6072B600BF01F0B1F800F07C
:100674006FF800F0BBF8FFF759FEFFF707FFFFF72D
:1006840019FF00F0C7FCFFF715FF00F0C7FD00F0ED
:10069400A5FDFFF7EDFD00F0F7FA274802F074FA24
:1006A400264B1B69002B29D0244B1B69B3F1FF3F58
:1006B40024D000F079F90346002B1FD000F012F982
:1006C4000346002BFAD000F0CBF90346002BF5D0FB
:1006D4001A4B9B68194A1360184BDB68174A53601E
:1006E400164B00221A61154B00225A61134B00224B
:1006F4009A60124B0022DA6000F08CFB0E4802F084
:1007040043FA0F4B1B680F4A934212D10C4B1B68E0
:10071400BB600B4B04331B68FB600B4B0B4A9A60AA
:10072400BB687B607B6883F3088800BFFB689847DD
:1007340001E0FFF77BFFFEE74C040020600400208B
:100744000080000800000C2000ED00E0008000089C
:1007540080B59EB000AF07F118036022002118464F
:1007640006F057F83B4600221A605A609A60DA6035
:100774001A615A614FF4803002F03AFA0346002BB2
:1007840001D000F071FA1823BB614FF08063FB6263
:1007940001237B631023BB630023FB6300233B63C0
:1007A40000233B6507F11803184602F0C7FA034615
:1007B400002B01D000F058FA1F233B6000237B601C
:1007C4000023BB600023FB6000233B6100237B61AB
:1007D4003B460121184603F0B5FB0346002B01D02C
:1007E40000F042FA00BF7837BD4680BD80B500AF47
:1007F40002F094FA00BF80BD80B485B000AF786089
:100804000023FB601F4B1B884FF6FF7293420DD0F1
:100814001C4B1B88002B06D01A4B1B889B025B08C1
:1008240003F1006304E04FF0016301E04FF0016362
:100834007A68934205D97B6803F178435B0BFB60CC
:1008440019E0104B1B884FF6FF7293420DD00D4BED
:100854001B88002B06D00B4B1B889B025B0803F103
:10086400006304E04FF0016301E04FF001637A6834
:10087400D31A5B0BFB60FB6818461437BD465DF862
:10088400047B7047A007FA0B80B485B000AF786092
:100894000023FB60124B1B884FF6FF7293420DD06E
:1008A4000F4B1B88002B06D00D4B1B889B025B084B
:1008B40003F1006304E04FF0016301E04FF00163D2
:1008C4007A68934202D90123FB6001E00223FB60B2
:1008D400FB6818461437BD465DF8047B704700BFBB
:1008E400A007FA0B80B588B000AF00233B602B4B08
:1008F4005B0BBB6101F086F9294B42F2FA021A62E2
:10090400284B03F500531846FFF776FF786102235E
:100914007B60244B03F500531846FFF7B5FF0346ED
:10092400BB607B69FB6001233B613A463B1D11467A
:10093400184601F0C3FA0023FB6124E0FB695B0362
:10094400184A13441846FFF757FF786102237B6067
:10095400FB695B03134A13441846FFF795FF0346EC
:10096400BB607B69FB603A463B1D1146184601F0AB
:10097400A5FA0346002B03D001F066F9002309E031
:10098400FB690133FB61FA69BB699A42D6D301F072
:100994005BF9012318462037BD4680BD00401F0087
:1009A400002002400080000880B5C4B000AF2B4B8B
:1009B4001B69C7F80C314FF40053C7F80831002302
:1009C400C7F804311EE03B1D4FF48072D7F80811BC
:1009D400184600F051FCD7F80431DA433B1D4FF4BC
:1009E40080711846FFF77AFCC7F80401D7F808317C
:1009F40003F58073C7F80831D7F80C31A3F5807379
:100A0400C7F80C31D7F80C31B3F5807FDBD8D7F8B1
:100A14000C31002B13D0D7F80C319AB23B1DD7F808
:100A24000811184600F028FCD7F80431DA433B1DBE
:100A3400D7F80C111846FFF751FCC7F80401074B0F
:100A44005B69D7F804219A4201D1012300E0002315
:100A5400184607F58877BD4680BD00BF60040020B6
:100A640080B5ADF5804D90B000AF01F0CBF8794B77
:100A740042F2FA021A624FF4005307F5804202F17F
:100A84003C021360744B1B6907F5804202F13C027F
:100A94001268134407F5804202F12C0213606F4B75
:100AA40007F5804202F138021360BCE06C4802F0A2
:100AB4006BF807F5804303F12203022207F5804116
:100AC40001F13C010968184600F0D6FB07F58043A4
:100AD40003F13C031B68023307F5804202F13C0238
:100AE400136007F5804303F122031A8807F50053C6
:100AF40007F5804101F13C010968184600F0BCFB90
:100B040007F5804303F122031B881A4607F5804347
:100B140003F13C031B68134407F5804202F13C02D5
:100B2400136007F14003403B4FF400520021184684
:100B340005F06FFE07F5804303F122031B881A4674
:100B440007F14003403B07F500501946FFF7FBFC53
:100B540007F5804303F12803186007F14003403B85
:100B640007F5804202F1240213604FF47A7001F019
:100B740091F8002307F5804202F134021360002348
:100B840007F5804202F1300213603BE007F5804331
:100B940003F124031A6807F5804303F134031B6847
:100BA40013441A4607F5804303F1380319680120FA
:100BB40000F0D0FF0346002B03D001F045F80023DA
:100BC40041E007F5804303F138031B68103307F550
:100BD400804202F13802136007F5804303F13403C5
:100BE4001B68103307F5804202F13402136007F5E5
:100BF400804303F130031B68013307F5804202F19F
:100C04003002136007F5804303F134031A6807F5D3
:100C1400804303F128031B689A42B7D3114B1B6826
:100C24000133104A136007F5804303F13C031A684B
:100C340007F5804303F12C031B689A42FFF436AF97
:100C440001F002F80123184607F580474037BD46F6
:100C540080BD00BF00200240600400200080000826
:100C64004C0400204404002080B400AF72B600BFDE
:100C7400FEE780B483B000AF7860396000BF0C3702
:100C8400BD465DF8047B704780B500AF064B5B0B37
:100C9400DAB2064B1A7000F00DF803461A46044BFC
:100CA4001A7000BF80BD00BF00400000480400204F
:100CB4004904002090B583B000AF0023FB711DE010
:100CC400FB795B03154A13444FF400521946144848
:100CD40005F092FD124B03F58053D3F8F04F4FF01B
:100CE400FF3241F6F0710E48FFF7F8FA03469C42D2
:100CF40001D1FB790EE0FB790133FB71094B1B78C1
:100D0400FA799A42DCD34FF400520021044805F0EA
:100D140080FD002318460C37BD4690BD00C01F0857
:100D2400600400204804002080B485B000AF7860DF
:100D34000023FB601F4B1B884FF6FF7293420DD0BC
:100D44001C4B1B88002B06D01A4B1B889B025B088C
:100D540003F1006304E04FF0016301E04FF001632D
:100D64007A68934205D97B6803F178435B0BFB6097
:100D740019E0104B1B884FF6FF7293420DD00D4BB8
:100D84001B88002B06D00B4B1B889B025B0803F1CE
:100D9400006304E04FF0016301E04FF001637A68FF
:100DA400D31A5B0BFB60FB6818461437BD465DF82D
:100DB400047B7047A007FA0B80B485B000AF78605D
:100DC4000023FB60124B1B884FF6FF7293420DD039
:100DD4000F4B1B88002B06D00D4B1B889B025B0816
:100DE40003F1006304E04FF0016301E04FF001639D
:100DF4007A68934202D90123FB6001E00223FB607D
:100E0400FB6818461437BD465DF8047B704700BF85
:100E1400A007FA0B90B58FB000AF794B1B78022B6B
:100E240000D900BF764B1B785B03764A13444FF41A
:100E340000521946744805F0CFFC0346002B00F01D
:100E4400DA8000233B6000F0DDFE704B42F2FA02D0
:100E54001A626C4B1846FFF767FFB862694B184675
:100E6400FFF7AAFF786202237B607B6ABB60BB6AE0
:100E7400FB6001233B613A463B1D1146184601F0D5
:100E84001DF84FF0FF3241F6F0715F48FFF726FA84
:100E940003465D4A02F58052C2F8F03F002387F80A
:100EA4003730574B1B7887F836309BE097F836205D
:100EB400574B1B78013B9A4205DA97F836300133D9
:100EC40087F8363002E0002387F8363097F836305A
:100ED4005B034C4A13441846FFF726FFB86202230B
:100EE4007B6097F836305B03464A13441846FFF795
:100EF40063FF0346BB60BB6AFB6001233B613A4668
:100F04003B1D1146184600F0D9FF0346002B5FD164
:100F14003D4BFB6100233B630023FB6220E097F819
:100F240036305A033B6B1344364A1344BB61FA69A7
:100F34003B6B13441A46B969012000F00BFE0346CB
:100F440087F8353097F83530002B03D000F096FE43
:100F5400386209E03B6B10333B63FB6A0133FB628D
:100F64003B6BB3F5005FDAD397F83530002B33D100
:100F740097F836305B03234A13447B617B6903F59E
:100F84008053D3F8F04F4FF0FF3241F6F071786997
:100F9400FFF7A4F903469C421FD1194B1B785B034E
:100FA400184A13447B617B6903F5FF531033002215
:100FB4001946012000F0CEFD034687F8353097F836
:100FC4003530002B09D10E4A97F83630137010E0F3
:100FD40000F054FE386200E000BF97F83730013368
:100FE40087F837300A4B1B7897F837209A42FFF47A
:100FF4005DAF00F029FE00BF3C37BD4690BD00BF89
:101004004904002000C01F086004002000200240A2
:101014004804002080B584B000AF3B1D00221A6054
:101024005A609A60304B314A1A602F4B4FF4800259
:101034005A602D4B00229A602B4B0722DA602A4B10
:1010440000221A61284B00225A61274B4FF080621C
:101054009A61254B0022DA61234B00221A62224B4B
:1010640000225A62204B00229A621F4B0722DA6246
:101074001D4B4FF080425A631B4B00229A631A4B5C
:101084000022DA63184B00229A64174B0022DA64B8
:10109400154B00221A65144B00225A65124B00228C
:1010A4009A65114B0022DA650F4B00221A660E482E
:1010B40004F04AFF0346002B01D0FFF7D5FD0023BF
:1010C4007B604FF08053BB600023FB603B1D1946DF
:1010D400054805F04FFA0346002B01D0FFF7C4FD85
:1010E40000BF1037BD4680BD60240020003800409A
:1010F40080B5BCB000AF786007F1DC0300221A6051
:101104005A609A60DA601A6107F11003C82200215C
:10111400184605F07EFB7B681B68274A934247D13B
:101124004FF080724FF00003C7E904234FF480337B
:10113400C7F8C83007F11003184603F0EBFB034669
:10114400002B01D0FFF790FD1C4BD3F89C301B4AB9
:1011540043F48043C2F89C30184BD3F89C3003F41A
:101164008043FB60FB68154BD3F88C30134A43F083
:101174000203C2F88C30114BD3F88C3003F0020315
:10118400BB60BB684FF46043C7F8DC300223C7F888
:10119400E0300023C7F8E4300023C7F8E830052323
:1011A400C7F8EC3007F1DC031946054800F092FF5C
:1011B40000BFF037BD4680BD00380040000C024639
:1011C4000004024280B500AF01220821024801F068
:1011D400ADFB00BF80BD00BF001C024280B582B0E1
:1011E40000AF0023BB8000F04DF900F0E7F900F0F8
:1011F4005FF900F0E3F900F071F900F0DFF93B1D4D
:10120400184600F085F900F0D9F900F073F800F001
:10121400D5F900BF0837BD4680BD000080B500AFDA
:10122400FFF7D0FF00F0F2F9FFF7CCFF01224FF4F3
:1012340080510F4801F07AFBFFF7ECFE00BF0D4B25
:101244001B685B6903F00203022BF8D1094B1B688E
:101254001A68084B1B6842F400621A60054B1B684D
:101264001A68044B1B6842F001021A6000BF80BD7B
:10127400000402426024002080B584B000AFF8600E
:10128400B9601346FB8000224FF48051184801F0E6
:101294004DFB032000F08AF8BB681B0CDBB2184638
:1012A40000F084F8BB681B0ADBB2184600F07EF835
:1012B400BB68DBB2184600F079F809E0002000F0C2
:1012C40075F803461A46FB681A70FB680133FB6025
:1012D400FB885A1EFA80002BF0D101224FF4805172
:1012E400034801F023FB00BF1037BD4680BD00BF9B
:1012F4000004024280B584B000AF0023FB600023E9
:10130400BB6000237B6000233B6000224FF48051CC
:10131400134801F00BFB9F2000F048F8002000F078
:1013240045F80346BB60002000F040F803467B60AC
:10133400002000F03BF803463B6001224FF480514B
:10134400074801F0F3FABB681A047B681B021343D5
:101354003A681343FB60FB6818461037BD4680BDEE
:101364000004024280B483B000AF0F4B1B685B687B
:101374001B0C1B040C4A126843F00103536000BFAA
:10138400094B1B685B6903F00103012BF8D1064B81
:101394001B6830331B78FB71FB7918460C37BD464C
:1013A4005DF8047B704700BF6024002080B582B0E4
:1013B40000AF0346FB71274B1B681A68254B1B685B
:1013C40022F001021A60234B1B685B681B0C1B0490
:1013D400204A126843F0010353601E4B1B681A68CD
:1013E4001C4B1B6842F001021A6000BF194B1B68BA
:1013F4005B6903F00203002BF8D0164B1B681A68D4
:10140400144B1B6842F400721A60124B1B682033A1
:10141400FA791A7000BF0F4B1B685B6903F008036D
:10142400082BF8D10B4B1B689A690A4B1B6842F0D6
:1014340008029A61074B1B689A69064B1B6842F0C5
:1014440010029A61FFF78EFF034618460837BD461F
:1014540080BD00BF6024002080B500AF00224FF49F
:101464008051074801F062FA0620FFF79FFF01222E
:101474004FF48051024801F059FA00BF80BD00BF0B
:101484000004024280B500AF00224FF480510748A7
:1014940001F04CFA6620FFF789FF01224FF48051D6
:1014A400024801F043FA00BF80BD00BF00040242BD
:1014B40080B500AF00224FF48051074801F036FA9E
:1014C4009920FFF773FF01224FF48051024801F085
:1014D4002DFA00BF80BD00BF0004024280B500AFFA
:1014E400FFF7BAFF00224FF48051084801F01EFABA
:1014F4009820FFF75BFF01224FF48051034801F06D
:1015040015FA00F031F800BF80BD00BF00040242AC
:1015140080B584B000AF78600023FB73FFF79CFFB5
:1015240000224FF480510F4801F000FA4220FFF7E7
:101534003DFF1223FB7308E07B681B88DBB218466F
:10154400FFF734FFFB7B013BFB73FB7B002BF3D1E9
:1015540001224FF48051034801F0E8F900BF10372D
:10156400BD4680BD0004024280B582B000AF0023B6
:10157400FB7100224FF480510E4801F0D7F9052089
:10158400FFF714FF0020FFF711FF0346FB710A4821
:1015940001F0FAFAFB7903F00103002BF2D10122E6
:1015A4004FF48051034801F0C1F900BF0837BD462C
:1015B40080BD00BF000402424C04002080B582B00C
:1015C40000AF0023FB7100224FF480510E4801F05C
:1015D400ADF90520FFF7EAFE0020FFF7E7FE03461A
:1015E400FB71FB79002B00D000BF97F90730002B6B
:1015F400F2DB01224FF48051034801F097F900BF58
:101604000837BD4680BD00BF0004024280B586B0E5
:1016140000AF1148FFF76CFD4FF480537B6001234A
:10162400BB600123FB6000233B613B1D19460B4853
:1016340000F050FD08237B600123BB600123FB60A5
:1016440000233B613B1D1946054800F043FD00BFE4
:101654001837BD4680BD00BF60240020000402424C
:10166400001C024280B582B000AF0D4BD3F8943019
:101674000B4A43F00403C2F89430094BD3F8943076
:1016840003F004037B607B68002200211B2000F030
:1016940013FA1B2000F03AFA00BF0837BD4680BD9C
:1016A400000C024680B400AFFEE780B400AFFEE752
:1016B40080B400AFFEE780B400AFFEE780B400AFB3
:1016C400FEE780B400AF00BFBD465DF8047B704701
:1016D40080B400AF00BFBD465DF8047B704780B4A2
:1016E40000AF00BFBD465DF8047B704780B500AF16
:1016F40000F0D2F800BF80BD80B500AF024801F011
:1017040053FA00BF80BD00BF4C04002080B400AF7A
:10171400184BD3F88830174A43F47003C2F8883062
:10172400154B01221A60144B0022DA61124B00227D
:101734001A62114B00225A620F4B1B680E4A23F0A7
:10174400A85323F4102313600B4B00229A620A4B14
:101754001B68094A23F480231360074B00221A658F
:10176400044B4FF000629A6000BFBD465DF8047BF5
:10177400704700BF00ED00E0000C0246DFF834D0F3
:10178400002103E00C4B5B58435004310B480C4BD5
:1017940042189A42F6D30B4A02E0002342F8043B73
:1017A400094B9A42F9D3FFF7B1FF04F0F1FFFEF7BA
:1017B40053FFFEE700000C20A86B00080000002087
:1017C4002800002028000020F4240020FEE7000068
:1017D40080B500AF114B1B68104A43F4807313604B
:1017E400032000F049F902F0EDFE02460C4B1B6A9F
:1017F40003F00F030B49CB5C22FA03F30A4A13608C
:101804000F2000F013F80346002B01D0012302E05F
:10181400FFF728FF0023184680BD00BF00200240C8
:10182400000C0246D06A00080000002080B582B097
:1018340000AF7860154B1B78002B01D1012321E008
:10184400134B1A68114B1B7819464FF47A73B3FB88
:10185400F1F3B2FBF3F3184600F070F90346002BE2
:1018640001D001230EE07B680F2B0AD8002279688F
:101874004FF0FF3000F020F9064A7B681360002324
:1018840000E0012318460837BD4680BD080000204B
:10189400000000200400002080B400AF064B1B7839
:1018A4001A46064B1B681344044A136000BFBD4626
:1018B4005DF8047B704700BF08000020F02400207E
:1018C40080B400AF034B1B681846BD465DF8047B2B
:1018D400704700BFF024002080B485B000AF78606A
:1018E4007B6803F00703FB600C4BDB68BB60BA68E2
:1018F4004FF6FF031340BB60FB681A02BB68134337
:1019040043F0BF6343F40033BB60044ABB68D36055
:1019140000BF1437BD465DF8047B704700ED00E05E
:1019240080B400AF044BDB681B0A03F007031846BE
:10193400BD465DF8047B704700ED00E080B483B0E1
:1019440000AF0346FB7197F90730002B0BDBFB79E3
:1019540003F01F02074997F907305B09012000FAD9
:1019640002F241F8232000BF0C37BD465DF8047B2A
:10197400704700BF00E100E080B483B000AF0346CD
:101984003960FB7197F90730002B0ADB3B68DAB248
:101994000C4997F907301201D2B20B4483F80023A3
:1019A4000AE03B68DAB20849FB7903F00F03043B11
:1019B4001201D2B20B441A7600BF0C37BD465DF853
:1019C400047B704700E100E000ED00E080B489B0E2
:1019D40000AFF860B9607A60FB6803F00703FB614D
:1019E400FB69C3F10703042B28BF0423BB61FB6914
:1019F4000433062B02D9FB69033B00E000237B611F
:101A04004FF0FF32BB6902FA03F3DA43BB681A40B2
:101A14007B699A404FF0FF317B6901FA03F3D943A4
:101A24007B680B40134318462437BD465DF8047B9E
:101A34007047000080B582B000AF78607B68013BDE
:101A4400B3F1807F01D301230FE00A4A7B68013B95
:101A540053600F214FF0FF30FFF78EFF054B00223C
:101A64009A60044B07221A60002318460837BD46C3
:101A740080BD00BF10E000E080B582B000AF7860A8
:101A84007B68072B0FD07B68062B0CD07B68052B5B
:101A940009D07B68042B06D07B68032B03D0BC21C0
:101AA4000448FFF7E6F87868FFF716FF00BF083729
:101AB400BD4680BD4068000880B586B000AF0346CF
:101AC400B9607A60FB737B680F2B03D9D5210E486C
:101AD400FFF7CFF8BB680F2B03D9D6210A48FFF7CD
:101AE400C8F8FFF71DFF78617A68B9687869FFF76D
:101AF4006DFF024697F90F3011461846FFF73CFF79
:101B040000BF1837BD4680BD4068000880B582B06C
:101B140000AF0346FB7197F90730002B03DAEA2183
:101B24000548FFF7A6F897F907301846FFF706FFB0
:101B340000BF0837BD4680BD4068000880B582B04C
:101B440000AF78607868FFF775FF034618460837DA
:101B5400BD4680BD80B586B000AFF860B9607A60DC
:101B6400FB68012B08D0FB6844F20102934203D0C6
:101B7400A8212148FFF77DF8204B1B78012B01D1C8
:101B8400022334E01D4B01221A701C4B00225A60C0
:101B94004FF47A7000F07EF80346FB75FB7D002B52
:101BA40021D1164AFB689360154B3B61FB6823F017
:101BB4000043012B04D17968B86800F0B1F803E060
:101BC4007968B86800F018F94FF47A7000F062F898
:101BD4000346FB753B691A68FB6823F00043DB434B
:101BE4001A403B691A60054B00221A70FB7D1846A7
:101BF4001837BD4680BD00BF7C6800080C0000207B
:101C04002820024080B483B000AF0023FB710B4B4B
:101C14009B6A002B0BDA094B094A9A60074B094A65
:101C24009A60064B9B6A002B01DA0123FB71FB7956
:101C340018460C37BD465DF8047B7047002002400F
:101C440023016745AB89EFCD80B483B000AF012396
:101C5400FB71094B9B6A084A43F000439362064BAD
:101C64009B6A002B01DA0023FB71FB7918460C37C1
:101C7400BD465DF8047B70470020024080B400AF8D
:101C8400034B5B681846BD465DF8047B704700BF94
:101C94000C00002080B586B000AF7860FFF710FE1E
:101CA40002467B6813447B611B4B3B610BE07B6802
:101CB400B3F1FF3F07D0FFF703FE02467B6993426F
:101CC40001D8032323E03B691B6803F44033002B52
:101CD400EDD13B691A6842F2FA031340FB60FB68DA
:101CE400002B0AD00D4B5A68FB6813430B4A536010
:101CF4003B69FA681A60012309E03B691B6803F039
:101D04000103002B02D03B6901221A60002318460C
:101D14001837BD4680BD00BF202002400C000020C3
:101D240080B58AB000AF78603960042387F8273023
:101D34007B683B623B68FB617B68B3F1006F17D340
:101D4400284B1B884FF6FF7293420CD0254B1B88FF
:101D5400002B05D0234B1B889B0203F1006304E096
:101D64004FF0026301E04FF002637A6893420CD8AB
:101D74007B681D4A934203D97B681C4A934204D969
:101D84004FF42E711A48FEF774FF1A4BBB61BB69FE
:101D94001B6843F00102BB691A60EFF310833B61D7
:101DA4003B697B6172B600BFFB691A683B6A1A60C3
:101DB4003B6A04333B62FB690433FB6197F82730C9
:101DC400013B87F8273097F82730002BECD17B694B
:101DD400FB60FB6883F3108800BF00BF2837BD4653
:101DE40080BD00BFA007FA0BFFFFF90BFF01FA0B40
:101DF4007C6800082820024080B58AB000AF786073
:101E04003960202387F827307B683B623B68FB619D
:101E14007B68B3F1006F17D3254B1B884FF6FF7215
:101E240093420CD0224B1B88002B05D0204B1B88DF
:101E34009B0203F1006304E04FF0026301E04FF002
:101E440002637A68934204D84FF438711948FEF754
:101E540010FF194BBB61BB691B6843F4804343F01B
:101E64000103BA691360EFF310833B613B697B6143
:101E740072B600BFFB691A683B6A1A603B6A043396
:101E84003B62FB690433FB6197F82730013B87F819
:101E9400273097F82730002BECD17B69FB60FB6877
:101EA40083F3108800BF00BF2837BD4680BD00BF44
:101EB400A007FA0B7C6800082820024080B586B091
:101EC40000AF786039607B681B68022B09D07B689F
:101ED4001B6848F20402934203D0BB213448FEF746
:101EE400C8FE344B1B78012B01D102235CE0314B3B
:101EF40001221A702F4B00225A604FF47A70FFF7B8
:101F0400C9FE0346FB75FB7D002B49D17B681B682A
:101F1400284A9360284BFB607B681B6823F00043CE
:101F240048F2040293420BD17B685B68184600F0C8
:101F340045F84FF47A70FFF7ADFE0346FB7525E0D4
:101F44003B684FF0FF321A607B689B683B6115E089
:101F54007B685B681946386900F064F84FF47A705E
:101F6400FFF798FE0346FB75FB7D002B03D03B680F
:101F74003A691A600AE03B6901333B617B689A68FD
:101F84007B68DB6813443A699A42E1D3FB681A68B8
:101F94007B681B6823F00043DB431A40FB681A602C
:101FA400044B00221A70FB7D18461837BD4680BDCD
:101FB400B86800080C0000202820024080B584B0D6
:101FC40000AF78607B68012B0AD07B68022B07D0B6
:101FD4007B68032B04D040F27D311048FEF749FEA4
:101FE4000F4BFB607B6803F00103002B07D0FB68F9
:101FF4001B6843F4803343F00403FA6813607B687E
:1020040003F00203002B05D0FB681B6843F4C032C5
:10201400FB681A6000BF1037BD4680BDB868000871
:102024002820024080B584B000AF78603960264B28
:102034001B884FF6FF7293420BD0234B1B88002B57
:1020440005D0214B1B889B025B085B0B02E08023BD
:1020540000E080237A68934204D840F29E311B4802
:10206400FEF707FE3B68012B07D03B68022B04D028
:1020740040F29F311548FEF7FCFD154BFB603B68B1
:1020840003F00103002B06D0FB681B6823F40062F5
:10209400FB681A6005E0FB681B6843F40062FB6898
:1020A4001A60FB681B6823F4813323F4FD737A6898
:1020B400D200134343F4803343F00203FA681360FD
:1020C40000BF1037BD4680BDA007FA0BB8680008F2
:1020D4002820024080B588B000AF786039600023C2
:1020E4007B617B68874A93424FD07B68864A9342E0
:1020F4004BD07B68854A934247D07B68844A93429D
:1021040043D07B68834A93423FD07B68824A9342A0
:102114003BD07B68814A934237D07B68804A9342A4
:1021240033D07B687F4A93422FD07B687E4A9342A8
:102134002BD07B687D4A934227D07B687C4A9342AC
:1021440023D07B687B4A93421FD07B687A4A9342B0
:102154001BD07B68794A934217D07B68784A9342B4
:1021640013D07B68774A93420FD07B68764A9342B8
:102174000BD07B68754A934207D07B68744A9342BC
:1021840003D0CE217348FEF774FD3B681B689BB2F5
:10219400002B05D03B681B681B0C1B04002B03D0D1
:1021A400CF216C48FEF765FD3B685B68002B35D09A
:1021B4003B685B68012B31D03B685B68112B2DD0E9
:1021C4003B685B68022B29D03B685B68122B25D0E7
:1021D4003B685B68604A934220D03B685B685F4A17
:1021E40093421BD03B685B685D4A934216D03B68C0
:1021F4005B685C4A934211D03B685B685A4A9342DD
:102204000CD03B685B68594A934207D03B685B68D3
:10221400032B03D0D0214F48FEF72BFD7B683B6195
:1022240075E33B681A6801217B6901FA03F31340E3
:10223400FB607B69BB61FB68002B00F065837B68F6
:10224400424A934240F096807B681B68FB610122FE
:102254007B6902FA03F3DB43FA691340FB613B68D1
:102264005B6803F001027B6902FA03F3FA69134322
:10227400FB617B68FA691A603D4A7B6952F8333026
:102284003B613B4A7B69DB0013445B68BB61BB6910
:10229400DA083B69083253F82230FB61BB6903F06A
:1022A40007039B000F2202FA03F3DB43FA6913408E
:1022B400FB61BB6903F007039B000B2202FA03F3E3
:1022C400FA691343FB61BB69DA083B690832F969AF
:1022D40043F822103B691B68FB61BB695B00032266
:1022E40002FA03F3DB43FA691340FB61BB695B0049
:1022F400022202FA03F3FA691343FB613B69FA69A8
:102304001A60CAE1000002420000025200040242C4
:10231400000402520008024200080252000C024269
:10232400000C025200100242001002520014024239
:10233400001402520018024200180252001C024209
:10234400001C0252002002420020025200000246F9
:1023540000000256F8680008000011100000211067
:102364000000311000001210000022100000321092
:10237400206B00083B685B68022B04D03B685B68F9
:10238400122B40F01B817B68774A93424FD07B68C5
:10239400764A93424BD07B68754A934247D07B6818
:1023A400744A934243D07B68734A93423FD07B681C
:1023B400724A93423BD07B68714A934237D07B6820
:1023C400704A934233D07B686F4A93422FD07B6824
:1023D4006E4A93422BD07B686D4A934227D07B6828
:1023E4006C4A934223D07B686B4A93421FD07B682C
:1023F4006A4A93421BD07B68694A934217D07B6830
:10240400684A934213D07B68674A93420FD07B6833
:10241400664A93420BD07B68654A934207D07B6837
:10242400644A934203D0FD216348FEF722FC7B6893
:102434004D4A93424FD07B684C4A93424BD07B68C1
:102444004B4A934247D07B684A4A934243D07B68C5
:10245400494A93423FD07B68484A93423BD07B68C9
:10246400474A934237D07B68464A934233D07B68CD
:10247400454A93422FD07B68444A93422BD07B68D1
:10248400434A934227D07B68424A934223D07B68D5
:10249400414A93421FD07B68404A93421BD07B68D9
:1024A4003F4A934217D07B683E4A934213D07B68DD
:1024B4003D4A93420FD07B683C4A93420BD07B68E1
:1024C4003B4A934207D07B683A4A934203D0FE21A9
:1024D4003948FEF7CEFB3B681B690F2B03D9FF215C
:1024E4003548FEF7C6FB7B69DA087B68083253F887
:1024F4002230FB617B6903F007039B000F2202FA81
:1025040003F3DB43FA691340FB613B681B6903F087
:102514000F027B6903F007039B0002FA03F3FA69D5
:102524001343FB617B69DA087B680832F96943F875
:1025340022103B691B68FB61BB695B00032202FA42
:1025440003F3DB43FA691340FB613B685B6803F008
:102554000302BB695B0002FA03F3FA691343FB61EC
:102564003B69FA691A6098E00000024200000252D6
:10257400000402420004025200080242000802520F
:10258400000C0242000C02520010024200100252DF
:1025940000140242001402520018024200180252AF
:1025A400001C0242001C025200200242002002527F
:1025B4000000024600000256F86800087B68954A4D
:1025C400934250D07B68944A93424CD07B68934AA0
:1025D400934248D07B68924A934244D07B68914AA4
:1025E400934240D07B68904A93423CD07B688F4AA8
:1025F400934238D07B688E4A934234D07B688D4AAC
:10260400934230D07B688C4A93422CD07B688B4AAF
:10261400934228D07B688A4A934224D07B68894AB3
:10262400934220D07B68884A93421CD07B68874AB7
:10263400934218D07B68864A934214D07B68854ABB
:10264400934210D07B68844A93420CD07B68834ABF
:10265400934208D07B68824A934204D04FF4887135
:102664008048FEF706FB3B691B68FB61BB695B00A6
:10267400032202FA03F3DB43FA691340FB613B686C
:102684005B6803F00302BB695B0002FA03F3FA69B7
:102694001343FB613B69FA691A603B685B68012B71
:1026A4000BD03B685B68022B07D03B685B68112B3F
:1026B40003D03B685B68122B45D13B68DB68002B79
:1026C40010D03B68DB68012B0CD03B68DB68022B25
:1026D40008D03B68DB68032B04D04FF48F7161484A
:1026E400FEF7C7FA3B699B68FB61BB695B00032289
:1026F40002FA03F3DB43FA691340FB613B68DA68CF
:10270400BB695B0002FA03F3FA691343FB613B699B
:10271400FA699A603B695B68FB610122BB6902FA52
:1027240003F3DB43FA691340FB613B685B681B09F5
:1027340003F00102BB6902FA03F3FA691343FB6174
:102744003B69FA695A603B685B68032B28D03B6895
:102754009B68002B0CD03B689B68012B08D03B681E
:102764009B68022B04D04FF498713E48FEF781FA1F
:102774003B69DB68FB61BB695B00032202FA03F37C
:10278400DB43FA691340FB613B689A68BB695B00F1
:1027940002FA03F3FA691343FB613B69FA69DA60ED
:1027A4003B685B6803F08053002B00F0AD802E4A39
:1027B4007B699B08183352F82330FB617B6903F073
:1027C4000303DB000F2202FA03F3DB43FA6913402D
:1027D400FB617B689A0A254B13407A6902F0030275
:1027E400D2009340FA691343FB611F497B699B083C
:1027F4001833FA6941F823201B4B1B68FB61FB6803
:10280400DB43FA691340FB613B685B6803F48013A4
:102814002EE000BF00000242000002520004024207
:10282400000402520008024200080252000C024254
:10283400000C025200100242001002520014024224
:10284400001402520018024200180252001C0242F4
:10285400001C0252002002420020025200000246E4
:1028640000000256F8680008002002467F7F2F000F
:10287400002B03D0FA69FB681343FB612A4AFB6906
:102884001360294B5B68FB61FB68DB43FA69134007
:10289400FB613B685B6803F40013002B03D0FA6907
:1028A400FB681343FB61204AFB6953601E4BD3F85A
:1028B4008430FB61FB68DB43FA691340FB613B68CE
:1028C4005B6803F40033002B03D0FA69FB681343FD
:1028D400FB61154AFB69C2F88430134BD3F880308E
:1028E400FB61FB68DB43FA691340FB613B685B688F
:1028F40003F48033002B03D0FA69FB681343FB61B4
:10290400094AFB69C2F880307B6901337B613B680B
:102914001A687B6922FA03F3002B7FF482AC00BFB0
:1029240000BF2037BD4680BD0020024680B582B07E
:1029340000AF78600B467B8013467B707B88002B4E
:1029440004D07B881B0C1B04002B04D04FF4FE71B5
:102954000D48FEF78EF97B78002B07D07B78012B8E
:1029640004D040F2FD110848FEF783F97B78002B70
:1029740003D07A887B689A6102E07A887B689A62DD
:1029840000BF0837BD4680BDF868000880B584B034
:1029940000AF78600023FB737B68002B06D07B6854
:1029A400042B03D0A9210C48FEF763F90B4B1B68D9
:1029B40003F00103002B02D00123FB7307E0074B54
:1029C4001B6823F0040205497B6813430B60FB7BFF
:1029D40018461037BD4680BD346900080004034022
:1029E40080B400AF054B1B68044A43F00103136035
:1029F40000231846BD465DF8047B7047000403407D
:102A040080B584B000AF78607B68002B01D10123CE
:102A1400A6E07B681B68544A934208D07B681B6815
:102A2400524A934203D0C0215148FEF722F97B68F1
:102A34005B68002B23D07B685B68012B1FD07B680D
:102A44005B68022B1BD07B685B68032B17D07B6809
:102A54005B68042B13D07B685B68052B0FD07B6805
:102A64005B68062B0BD07B685B68072B07D07B6801
:102A74005B68082B03D0C1213D48FEF7FAF87B6858
:102A84009B68B3F5805F03D3C2213948FEF7F1F8A0
:102A94007B68DB68B3F5805F03D3C3213448FEF75A
:102AA400E8F87B681B69B3F5805F03D3C421304821
:102AB400FEF7DFF8786800F05DF87B681B684CF679
:102AC400CC421A607B681B6845F255521A607B68D9
:102AD4001B687A6852685A607B681B687A689268D7
:102AE4009A607B681B69002B05D17B681B684FF4D7
:102AF40080425A6106E07B681A697B681B6842F46D
:102B040040425A61FEF7DCFEF8600FE0FEF7D8FEA3
:102B14000246FB68D31A212B08D97B681B68DB6843
:102B240003F00F03002B01D0032319E07B681B681B
:102B3400DB6803F00F03002BE8D17B681B681A697C
:102B44007B68DB689A4205D07B681B687A68D26828
:102B54001A6104E07B681B684AF6AA221A60002303
:102B640018461037BD4680BD00300040003000508C
:102B74007069000880B483B000AF786000BF0C3780
:102B8400BD465DF8047B704780B483B000AF7860C5
:102B94007B681B684AF6AA221A60002318460C3781
:102BA400BD465DF8047B704780B582B000AF7860A5
:102BB4007B681B68DB6803F48043002B0AD07B68C6
:102BC4001B685A697B681B6842F480425A617868C2
:102BD40000F004F800BF0837BD4680BD80B483B060
:102BE40000AF786000BF0C37BD465DF8047B7047CA
:102BF40080B584B000AF78607B68B3F5403F0FD0F8
:102C04007B68B3F5003F0BD07B68B3F5803F07D0FA
:102C14007B68002B04D04FF4A1713548FEF729F8E6
:102C2400344BDB6B03F44033BB60BA687B689A4275
:102C340001D1002357E07B68B3F5803F0AD92D4BBF
:102C4400DB6823F4E0227B6813432A4A43F480239D
:102C5400D36007E0274BDB6823F4E02225497B6837
:102C64001343CB60244B1B68244AA2FB03239B0918
:102C7400322202FB03F3214AA2FB03239B09013303
:102C8400FB6002E0FB68013BFB601A4BDB6803F46A
:102C94000043002B02D1FB68002BF3D1FB68002B0F
:102CA4001BD0154B1B68154AA2FB03239B09322238
:102CB40002FB03F3114AA2FB03239B090133FB60CC
:102CC40002E0FB68013BFB600A4BDB6B03F400434F
:102CD400002B02D1FB68002BF3D1FB68002B01D140
:102CE400032300E0002318461037BD4680BD00BF13
:102CF400AC6900080008024600000020D34D6210B1
:102D040080B400AF044BDB6B03F440331846BD467C
:102D14005DF8047B704700BF0008024680B400AF32
:102D2400054BDB6A044A43F00103D36200BFBD468E
:102D34005DF8047B704700BF0008024680B58EB082
:102D440000AF7860002387F837307B68002B02D10E
:102D5400012301F0EBB87B681B68002B0AD07B6869
:102D64001B6823F0FF03002B04D040F22D21974869
:102D7400FDF77FFF964BDB6903F00C033B63944B39
:102D84009B6A03F00303FB627B681B6803F0100378
:102D9400002B00F0DC817B68DB69002B08D07B68AA
:102DA400DB69012B04D040F236218848FDF761FF2E
:102DB4007B681B6AFF2B04D940F237218348FDF757
:102DC40058FF7B685B6A002B4FD07B685B6AB3F16A
:102DD400805F4AD07B685B6AB3F1005F45D07B6853
:102DE4005B6AB3F1405F40D07B685B6AB3F1804FAC
:102DF4003BD07B685B6AB3F1A04F36D07B685B6ADB
:102E0400B3F1C04F31D07B685B6AB3F1E04F2CD093
:102E14007B685B6AB3F1004F27D07B685B6AB3F1D0
:102E2400104F22D07B685B6AB3F1204F1DD07B68C2
:102E34005B6AB3F1304F18D07B685B6AB3F1404FE3
:102E440013D07B685B6AB3F1504F0ED07B685B6A2A
:102E5400B3F1604F09D07B685B6AB3F1704F04D063
:102E64004FF40E715948FDF704FF3B6B002B07D05C
:102E74003B6B0C2B40F0E980FB6A012B40F0E580B2
:102E8400534B1B6803F00403002B06D07B68DB69FB
:102E9400002B02D1012301F049B87B685A6A4C4BDC
:102EA4009B6803F40003002B04D0494B9B6803F098
:102EB400704305E0464BD3F8F4301B0403F0704331
:102EC400934255D23B6B002B0AD17B685B6A184650
:102ED40001F09AFC0346002B02D0012301F026B82E
:102EE4003B4B9B683A4A43F400039360384B9B681E
:102EF40023F070427B685B6A354913438B607B68BF
:102F04005B6AB3F1404F09D3314BDB6823F01F02F6
:102F14007B681B6A2E491343CB6083E07B685B6A42
:102F2400002B0ADA2A4BDB6823F478727B681B6A6D
:102F34005B0127491343CB6074E07B685B6AB3F1A0
:102F4400804F0AD3224BDB6823F4F8427B681B6A68
:102F54009B021F491343CB6064E01D4BDB6823F4E1
:102F640078227B681B6ADB0319491343CB6059E061
:102F7400174B9B68164A43F400039360144B9B68F9
:102F840023F070427B685B6A114913438B607B6852
:102F94005B6AB3F1404F09D30D4BDB6823F01F028A
:102FA4007B681B6A0A491343CB602DE07B685B6A2C
:102FB400002B0FDA064BDB6823F478727B681B6AFC
:102FC4005B0103491343CB601EE000BFE8690008BE
:102FD400000C02467B685B6AB3F1804F0AD3954BC1
:102FE400DB6823F4F8427B681B6A9B029149134314
:102FF400CB6009E08F4BDB6823F478227B681B6A83
:10300400DB038C491343CB603B6B002B0AD17B68F9
:103014005B6A184601F0F8FB0346002B02D001233B
:1030240000F084BF01F0D6FB834B1B681846FEF703
:10303400FDFB034687F8273097F82730002B00F074
:10304400858097F8273000F071BF7B68DB69002B1F
:1030540061D0784B1B68774A43F001031360FEF795
:103064002FFCB86209E0FEF72BFC0246BB6AD31AB8
:10307400022B02D9032300F059BF6E4B1B6803F0E7
:103084000403002BEFD06B4B9B686A4A43F40003A4
:103094009360684B9B6823F070427B685B6A654968
:1030A40013438B607B685B6AB3F1404F09D3614B78
:1030B400DB6823F01F027B681B6A5E491343CB6005
:1030C40045E07B685B6A002B0ADA5A4BDB6823F421
:1030D40078727B681B6A5B0156491343CB6036E008
:1030E4007B685B6AB3F1804F0AD3524BDB6823F4ED
:1030F400F8427B681B6A9B024E491343CB6026E06F
:103104004C4BDB6823F478227B681B6ADB03494958
:103114001343CB601BE0474B1B68464A23F0010373
:103124001360FEF7CDFBB86209E0FEF7C9FB024667
:10313400BB6AD31A022B02D9032300F0F7BE3D4B1E
:103144001B6803F00403002BEFD100E000BF7B6891
:103154001B6803F00103002B00F0B3807B685B68FD
:10316400002B13D07B685B68B3F5803F0ED07B687F
:103174005B68B3F5A02F09D07B685B68B3F5A81F23
:1031840004D040F2A7212D48FDF773FD3B6B082BBB
:1031940005D03B6B0C2B11D1FB6A032B0ED1254BB5
:1031A4001B6803F40033002B00F08A807B685B68A3
:1031B400002B40F08580012300F0B8BE7B685B687B
:1031C400B3F5803F06D11B4B1B681A4A43F4803386
:1031D400136047E07B685B68B3F5A02F12D1154BF1
:1031E4001B68144A43F480231360124B1B68114A72
:1031F40023F4801313600F4B1B680E4A43F480338F
:1032040013602FE07B685B68B3F5A81F18D1094BE6
:103214001B68084A43F480231360064B1B68054A65
:1032240043F480131360034B1B68024A43F4803356
:10323400136017E0000C024604000020E86900084F
:103244009E4B1B689D4A23F4803313609B4B1B6881
:103254009A4A23F480231360984B1B68974A23F4FB
:10326400801313607B685B68002B14D0FEF728FB87
:10327400B86209E0FEF724FB0246BB6AD31A642B4A
:1032840002D9032300F052BE8C4B1B6803F40033B5
:10329400002BEFD015E0FEF713FBB86209E0FEF750
:1032A4000FFB0246BB6AD31A642B02D9032300F036
:1032B4003DBE824B1B6803F40033002BEFD100E0CA
:1032C40000BF7B681B6803F00203002B7AD07B6885
:1032D400DB68002B09D07B68DB68B3F5807F04D002
:1032E4004FF436717648FDF7C4FC7B681B691F2BCD
:1032F40004D940F2D9217248FDF7BBFC3B6B042B87
:1033040005D03B6B0C2B1AD1FB6A022B17D16B4BEC
:103314001B6803F48063002B06D07B68DB68002BFA
:1033240002D1012300F002BE644B1B6923F4F8129E
:103334007B681B691B04614913430B6142E07B6892
:10334400DB68002B24D05D4B1B685C4A43F480731C
:103354001360FEF7B5FAB86209E0FEF7B1FA024667
:10336400BB6AD31A022B02D9032300F0DFBD534BEF
:103374001B6803F48063002BEFD0504B1B6923F4CC
:10338400F8127B681B691B044C4913430B6119E059
:103394004A4B1B68494A23F480731360FEF790FA82
:1033A400B86209E0FEF78CFA0246BB6AD31A022B14
:1033B40002D9032300F0BABD404B1B6803F48063B9
:1033C400002BEFD17B681B6803F00803002B00F08F
:1033D400EF807B685B69002B09D07B685B69B3F184
:1033E400806F04D040F217313548FDF742FC0023CA
:1033F40087F83630314BD3F8943003F00403002BB4
:1034040011D12E4BD3F894302C4A43F00403C2F864
:1034140094302A4BD3F8943003F004037B617B6926
:10342400012387F83630274B9B6A03F00103002BF6
:1034340019D1244B9B6A234A43F001039362FEF79C
:103444003FFAB86209E0FEF73BFA0246BB6AD31AB8
:10345400022B02D9032300F069BD1A4B9B6A03F0C7
:103464000103002BEFD07B685B69002B77D0134BF3
:10347400D3F8F0303B627B689B69002B09D07B68F2
:103484009B69B3F1805F04D040F239310C48FDF7F9
:10349400F0FB7B689A693B6A03F080539A4240D000
:1034A4003B6A03F00063002B0ED03B6A03F0806399
:1034B400002B09D1012300F039BD00BF000C0246E6
:1034C400E8690008000802463B6A03F08063002BA9
:1034D4001CD0AF4BD3F8F030AD4A23F0A053C2F860
:1034E400F030FEF7EDF9B86209E0FEF7E9F90246BB
:1034F400BB6AD31A022B02D9032300F017BDA44BD5
:10350400D3F8F03003F00063002BEED1A04BD3F8D6
:10351400F03023F080527B689B699D491343C1F8C6
:10352400F0309B4BD3F8F030994A43F08063C2F8F3
:10353400F030FEF7C5F9B86209E0FEF7C1F90246BA
:10354400BB6AD31A022B02D9032300F0EFBC904BC1
:10355400D3F8F03003F00063002BEED01CE08C4B6A
:10356400D3F8F0308A4A23F0A053C2F8F030FEF7C3
:10357400A7F9B86209E0FEF7A3F90246BB6AD31AB9
:10358400022B02D9032300F0D1BC814BD3F8F030D5
:1035940003F00063002BEED197F83630012B07D1EE
:1035A4007B4BD3F894307A4A23F00403C2F8943066
:1035B4007B681B6803F00403002B00F02F810023B9
:1035C40087F835307B689B68002B14D07B689B6838
:1035D400812B10D07B689B68012B0CD07B689B6887
:1035E400052B08D07B689B68852B04D04FF4617150
:1035F4006848FDF73EFB664BD3F8943003F00403B0
:10360400002B11D1624BD3F89430614A43F0040388
:10361400C2F894305E4BD3F8943003F004033B615A
:103624003B69012387F835305B4B9B6A03F0010348
:10363400002B19D1584B9B6A574A43F001039362FC
:10364400FEF73EF9B86209E0FEF73AF90246BB6AB2
:10365400D31A022B02D9032300F068BC4E4B9B6A99
:1036640003F00103002BEFD07B689B6803F0010398
:10367400002B1FD07B689B6803F00403002B10D041
:10368400434BD3F8F030424A43F00403C2F8F0301D
:103694003F4BD3F8F0303E4A43F00103C2F8F03018
:1036A40018E03B4BD3F8F030394A43F00103C2F839
:1036B400F0300FE0364BD3F8F030354A23F00103F5
:1036C400C2F8F030324BD3F8F030314A23F004031F
:1036D400C2F8F0307B689B68002B54D0FEF7F0F8FA
:1036E400B8620BE0FEF7ECF80246BB6AD31A41F26B
:1036F4008832934202D9032300F018BC244BD3F838
:10370400F03003F00203002BECD07B689B6803F0DD
:103714008003002B1BD01E4BD3F8F0301C4A43F01F
:103724008003C2F8F0300AE0FEF7CAF80246BB6A2A
:10373400D31A41F28832934201D90323F6E3144B9E
:10374400D3F8F03003F40063002BEDD05AE0104BB3
:10375400D3F8F0300E4A23F08003C2F8F0300AE0C8
:10376400FEF7AEF80246BB6AD31A41F2883293429E
:1037740001D90323DAE3064BD3F8F03003F40063F2
:10378400002BEDD13EE0FEF79BF8B86211E000BFDC
:10379400000C0246E869000800080246FEF790F8AB
:1037A4000246BB6AD31A41F28832934201D90323F9
:1037B400BCE3624BD3F8F03003F00203002BEDD1ED
:1037C4005E4BD3F8F03003F08003002B1AD05B4B30
:1037D400D3F8F030594A23F08003C2F8F0300AE0FD
:1037E400FEF76EF80246BB6AD31A41F2883293425E
:1037F40001D903239AE3514BD3F8F03003F4006367
:10380400002BEDD197F83530012B07D14B4BD3F872
:1038140094304A4A23F00403C2F894307B681B684E
:1038240003F02003002B44D07B68DB6A002B09D013
:103834007B68DB6AB3F5805F04D040F20641404800
:10384400FDF717FA7B68DB6A002B19D03B4B1B682A
:103854003A4A43F480531360FEF732F8B86208E042
:10386400FEF72EF80246BB6AD31A022B01D90323B2
:103874005CE3324B1B6803F40053002BF0D018E0D8
:103884002E4B1B682D4A23F480531360FEF718F85F
:10389400B86208E0FEF714F80246BB6AD31A022B9A
:1038A40001D9032342E3254B1B6803F40053002B87
:1038B400F0D17B681B6803F08003002B48D07B6841
:1038C4001B6B002B09D07B681B6BB3F5804F04D0B6
:1038D40040F22F411A48FDF7CCF97B681B6B002B93
:1038E40019D0164B1B68154A43F480431360FDF747
:1038F400E7FFB86208E0FDF7E3FF0246BB6AD31AAC
:10390400022B01D9032311E30C4B1B6803F400437E
:10391400002BF0D01CE0094B1B68084A23F48043B9
:103924001360FDF7CDFFB8620CE0FDF7C9FF024656
:10393400BB6AD31A022B05D90323F7E2000C024613
:10394400E8690008774B1B6803F40043002BECD1B3
:103954007B681B6803F04003002B00F0ED807B685C
:103964005B6B002B08D07B685B6B102B04D040F2A0
:1039740057416D48FDF77DF97B689B6A002B4FD05A
:103984007B689B6AB3F1807F4AD07B689B6AB3F102
:10399400007F45D07B689B6AB3F1407F40D07B6851
:1039A4009B6AB3F1806F3BD07B689B6AB3F1A06FD5
:1039B40036D07B689B6AB3F1C06F31D07B689B6A59
:1039C400B3F1E06F2CD07B689B6AB3F1006F27D012
:1039D4007B689B6AB3F1106F22D07B689B6AB3F15A
:1039E400206F1DD07B689B6AB3F1306F18D07B6861
:1039F4009B6AB3F1406F13D07B689B6AB3F1506F3D
:103A04000ED07B689B6AB3F1606F09D07B689B6AB8
:103A1400B3F1706F04D04FF48B614348FDF729F97B
:103A24007B681B6AFF2B04D940F259413E48FDF7DD
:103A340020F97B685B6B002B60D03A4B9B68394A5A
:103A440043F400039360374B9B6823F070627B68F8
:103A54009B6A344913438B607B685B6AB3F1404FC4
:103A640009D3304BDB6823F01F027B681B6A2D49A6
:103A74001343CB6028E07B685B6A002B0ADA294B8E
:103A8400DB6823F478727B681B6A5B012549134366
:103A9400CB6019E07B685B6AB3F1804F0AD3214B9A
:103AA400DB6823F4F8427B681B6A9B021D491343BD
:103AB400CB6009E01B4BDB6823F478227B681B6A2C
:103AC400DB0318491343CB60164B1B68154A43F0BC
:103AD40010031360FDF7F4FEB86208E0FDF7F0FE92
:103AE4000246BB6AD31A022B01D903231EE20D4BF3
:103AF4001B6803F02003002BF0D01DE0094B1B686A
:103B0400084A23F010031360FDF7DAFEB8620DE0F3
:103B1400FDF7D6FE0246BB6AD31A022B06D903234D
:103B240004E200BF000C0246E8690008604B1B6811
:103B340003F02003002BEBD17B689B6B002B0CD094
:103B44007B689B6B012B08D07B689B6B022B04D09A
:103B540040F286415748FDF78CF87B689B6B002B3D
:103B640000F0E381002387F83430514BDB6903F024
:103B74000C030C2B00F092817B689B6B022B40F0B2
:103B84006B817B685B6C002B2CD07B685B6CB3F522
:103B9400805F27D07B685B6CB3F5005F22D07B68C5
:103BA4005B6CB3F5405F1DD07B685B6CB3F5804FF5
:103BB40018D07B685B6CB3F5A04F13D07B685B6C4B
:103BC400B3F5C04F0ED07B685B6CB3F5E04F09D002
:103BD4007B685B6CB3F5004F04D040F292413548EA
:103BE400FDF747F87B68DB6B012B0CD07B68DB6B44
:103BF400022B08D07B68DB6B032B04D040F293418B
:103C04002C48FDF736F87B681B6C002B03D07B68CF
:103C14001B6C102B04D940F294412648FDF729F877
:103C24007B689B6C032B04D97B689B6CB3F5007F8A
:103C340004D940F295411F48FDF71BF87B68DB6C03
:103C4400002B03D07B68DB6C802B04D940F29641B7
:103C54001848FDF70EF87B681B6D002B03D07B68BA
:103C64001B6D802B04D940F297411248FDF701F8EF
:103C74007B685B6D002B03D07B685B6D802B04D964
:103C84004FF493610B48FCF7F4FF094B1B68084A97
:103C940023F080731360FDF713FEB8620CE0FDF7A8
:103CA4000FFE0246BB6AD31A022B05D903233DE15A
:103CB400000C0246E86900089E4B1B6803F0007381
:103CC400002BECD19B4BD3F8943003F00403002B6E
:103CD40011D1984BD3F89430964A43F00403C2F8B8
:103CE4009430944BD3F8943003F00403FB60FB68E6
:103CF400012387F83430904BDB6803F48023B3F559
:103D0400802F02D1012387F837308B4BDB688A4A36
:103D140023F48023D360874B9B6A23F47F4323F0EF
:103D240003037A68D16B7A68126C013A1202114368
:103D34007A68526C0A437F4913438B627D4B5A6BFA
:103D44007E4B13407A68926C013AC2F308017A6898
:103D5400D26C013A520292B211437A68126D013A5E
:103D6400120402F4FE0211437A68526D013A1206FB
:103D740002F0FE420A436F4913434B637B68DB6DD9
:103D8400B3F5005F04D340F2BF416D48FCF771FF07
:103D9400684B9B6A674A23F010039362654B9B6BE5
:103DA40023F47F4323F0F8037A68D26DD20061498B
:103DB40013438B635F4B9B6A5E4A43F01003936229
:103DC4007B689B6D002B08D07B689B6D0C2B04D00B
:103DD40040F2CA415A48FCF74CFF564B9B6A23F009
:103DE4000C027B689B6D534913438B6297F8373001
:103DF400012B05D1504BDB684F4A43F48023D36039
:103E040097F83430012B07D14A4BD3F89430494A00
:103E140023F00403C2F89430464B9B6A454A43F4AA
:103E240080239362434B1B68424A43F080731360C0
:103E3400FDF746FDB86208E0FDF742FD0246BB6AA5
:103E4400D31A022B01D9032370E03A4B1B6803F009
:103E54000073002BF0D068E0364B1B68354A23F022
:103E640080731360FDF72CFDB86208E0FDF728FDB0
:103E74000246BB6AD31A022B01D9032356E02D4B09
:103E84001B6803F00073002BF0D12A4B9B6A294A6C
:103E940023F4E02323F00303936246E0254B9B6A5B
:103EA400FB61244B5B6BBB617B689B6B012B3AD042
:103EB400FB6903F003027B68DB6B9A4233D1FB6935
:103EC4001B0A03F00F027B681B6C013B9A422AD148
:103ED400FB691B0B03F00F027B685B6C9A4222D1D7
:103EE400BB69C3F308027B689B6C013B9A421AD1FD
:103EF400BB695B0A03F07F027B68DB6C013B9A427F
:103F040011D1BB691B0C03F07F027B681B6D013B65
:103F14009A4208D1BB691B0E03F07F027B685B6D7C
:103F2400013B9A4201D0012300E0002318463837B0
:103F3400BD4680BD000C0246000802460000808099
:103F4400E869000880B586B000AF786039607B68A6
:103F5400002B01D1012326E37B681B68002B03D0CF
:103F64007B681B681F2B04D940F24A512748FCF791
:103F740080FE3B68002B31D03B68012B2ED03B6880
:103F8400022B2BD03B68032B28D03B68042B25D075
:103F94003B68052B22D03B68062B1FD03B68072BC0
:103FA4001CD03B68082B19D03B68092B16D03B6802
:103FB4000A2B13D03B680B2B10D03B680C2B0DD075
:103FC4003B680D2B0AD03B680E2B07D03B680F2BA8
:103FD40004D040F24B510D48FCF74BFE0C4B1B68D0
:103FE40003F00F033A689A4214D9094B1B6823F073
:103FF4000F0207493B6813430B60054B1B6803F032
:104004000F033A689A4205D00123CCE2E86900081C
:10401400002002407B681B6803F01003002B29D0AA
:104024007B685A698B4B5B6A03F070039A4221D90F
:104034007B685B69002B14D07B685B69402B10D0D4
:104044007B685B69502B0CD07B685B69602B08D064
:104054007B685B69702B04D040F265517E48FCF7A5
:1040640008FE7C4B5B6A23F070027B685B697949CC
:1040740013434B627B681B6803F00803002B2BD0AF
:104084007B681A69734B1B6A1B0903F070039A421D
:1040940022D97B681B69002B14D07B681B69402BD9
:1040A40010D07B681B69502B0CD07B681B69602B7C
:1040B40008D07B681B69702B04D040F26E516648AF
:1040C400FCF7D7FD634B1B6A23F4E0627B681B6932
:1040D4001B01604913430B627B681B6803F00403F4
:1040E400002B29D07B68DA685A4B1B6A03F07003F3
:1040F4009A4221D97B68DB68002B14D07B68DB688B
:10410400402B10D07B68DB68502B0CD07B68DB68BD
:10411400602B08D07B68DB68702B04D04FF4AF6150
:104124004D48FCF7A6FD4B4B1B6A23F070027B68DD
:10413400DB68484913430B627B681B6803F0020386
:10414400002B39D07B689A68424B1B6A03F00F033B
:104154009A4231D97B689B68002B24D07B689B688A
:10416400082B20D07B689B68092B1CD07B689B683C
:104174000A2B18D07B689B680B2B14D07B689B6838
:104184000C2B10D07B689B680D2B0CD07B689B6834
:104194000E2B08D07B689B680F2B04D040F2825111
:1041A4002D48FCF766FD2B4B1B6A23F00F027B683E
:1041B4009B68284913430B627B681B6803F0010367
:1041C400002B00F0E8807B685B68002B10D07B68D4
:1041D4005B68012B0CD07B685B68022B08D07B6882
:1041E4005B68032B04D040F28A511B48FCF741FD65
:1041F4000023FB757B685B68032B4AD1154BD3F80E
:10420400943003F00403002B10D1124BD3F89430F4
:10421400104A43F00403C2F894300E4BD3F89430A0
:1042240003F00403BB60BB680123FB75FDF748FB87
:1042340038610A4BDB6803F48023002B16D00FE0AF
:10424400FDF73EFB02463B69D31A022B08D9032330
:10425400A9E100BF000C0246E86900080008024614
:10426400794BDB6803F48043002BE9D0FB7D012B01
:1042740007D1764BD3F89430744A23F00403C2F880
:104284009430724B1B6803F00073002B21D101237F
:1042940089E17B685B68022B07D16C4B1B6803F4D4
:1042A4000033002B15D101237DE17B685B68002B73
:1042B40007D1664B1B6803F00403002B09D10123CB
:1042C40071E1624B1B6803F48063002B01D101236D
:1042D40069E15E4BDB6923F003027B685B685B4941
:1042E4001343CB61FDF7ECFA38617B685B68032B01
:1042F40012D10AE0FDF7E4FA02463B69D31A41F20F
:104304008832934201D903234DE1504BDB6903F01A
:104314000C030C2BEED13EE07B685B68022B12D1C0
:104324000AE0FDF7CDFA02463B69D31A41F288321E
:10433400934201D9032336E1444BDB6903F00C03B8
:10434400082BEED127E07B685B68002B1DD10AE0C7
:10435400FDF7B6FA02463B69D31A41F2883293421A
:1043640001D903231FE1394BDB6903F00C03002B54
:10437400EED110E0FDF7A4FA02463B69D31A41F2EC
:104384008832934201D903230DE1304BDB6903F0FA
:104394000C03042BEED17B681B6803F00203002B93
:1043A40039D07B689A68294B1B6A03F00F039A4241
:1043B40031D27B689B68002B24D07B689B68082BD8
:1043C40020D07B689B68092B1CD07B689B680A2BD8
:1043D40018D07B689B680B2B14D07B689B680C2BD4
:1043E40010D07B689B680D2B0CD07B689B680E2BD0
:1043F40008D07B689B680F2B04D040F205611448F9
:10440400FCF737FC114B1B6A23F00F027B689B6897
:104414000E4913430B620F4B1B6803F00F033A68FA
:104424009A4219D20B4B1B6823F00F0209493B68CF
:1044340013430B60074B1B6803F00F033A689A425F
:104444000AD00123AFE000BF00080246000C024678
:10445400E8690008002002407B681B6803F004033D
:10446400002B29D07B68DA68514B1B6A03F0700378
:104474009A4221D27B68DB68002B14D07B68DB680E
:10448400402B10D07B68DB68502B0CD07B68DB683A
:10449400602B08D07B68DB68702B04D040F21D6170
:1044A4004448FCF7E6FB424B1B6A23F070027B682E
:1044B400DB683F4913430B627B681B6803F0080306
:1044C400002B2BD07B681A69394B1B6A1B0903F03C
:1044D40070039A4222D27B681B69002B14D07B683C
:1044E4001B69402B10D07B681B69502B0CD07B6858
:1044F4001B69602B08D07B681B69702B04D040F2C9
:1045040027612C48FCF7B5FB294B1B6A23F4E062B6
:104514007B681B691B01264913430B627B681B687C
:1045240003F01003002B29D07B685A69204B5B6A87
:1045340003F070039A4221D27B685B69002B14D08C
:104544007B685B69402B10D07B685B69502B0CD077
:104554007B685B69602B08D07B685B69702B04D037
:1045640040F231611348FCF784FB114B5B6A23F082
:1045740070027B685B690E4913434B6200F022F8BA
:1045840002460B4B1B6A03F00F030B49CB5C22FA68
:1045940003F30A4A13600A4B1B681846FDF746F9F1
:1045A4000346FB73FB7B18461837BD4680BD00BF2E
:1045B400000C0246E8690008D06A000800000020E8
:1045C4000400002080B48BB000AF00237B62002382
:1045D4003B627B4BDB6903F00C03BB61784B9B6A4A
:1045E40003F003037B61BB69002B05D0BB690C2B73
:1045F40021D17B69012B1ED1714B9B6803F400030D
:10460400002B07D16E4BD3F8F4301B0B03F00F03D0
:104614007B6205E06A4B9B681B0F03F00F037B6210
:10462400684A7B6A52F823307B62BB69002B10D145
:104634007B6A3B620DE0624BDB6903F00C03042BE5
:1046440002D1614B3B6204E0BB69082B01D15E4B94
:104654003B62BB690C2B40F0AC80594B9B6A03F066
:1046640003033B61564B9B6A1B0A03F00F030133A0
:10467400FB60534B9B6A1B0903F00103BB60504B67
:104684009B6BDB08C3F30C03BA6802FB03F307EE6E
:10469400903AF8EE677AC7ED017AFB68002B00F0D8
:1046A40086803B69022B03D03B69032B22D043E075
:1046B400FB6807EE903AF8EE677ADFED446A86EE1F
:1046C400A77A3F4B5B6BC3F3080307EE903AF8EE0F
:1046D400676A97ED016ADFED3E5AC6EE257A76EEFB
:1046E400A77AF7EE006A77EEA67A67EE277AC7ED27
:1046F400077A46E0FB6807EE903AF8EE677ADFED5A
:10470400336A86EEA77A2E4B5B6BC3F3080307EE7E
:10471400903AF8EE676A97ED016ADFED2D5AC6EE1E
:10472400257A76EEA77AF7EE006A77EEA67A67EE38
:10473400277AC7ED077A24E07B6A07EE903AF8EE11
:10474400676AFB6807EE903AF8EE677A86EEA77A16
:104754001B4B5B6BC3F3080307EE903AF8EE676AF2
:1047640097ED016ADFED1A5AC6EE257A76EEA77A3E
:10477400F7EE006A77EEA67A67EE277AC7ED077A36
:1047840000BF0F4B5B6B1B0E03F07F0301333B60D9
:104794003B6807EE903AB8EE677AD7ED076AC6EE43
:1047A400877AFCEEE77A17EE903A3B6201E0002349
:1047B4003B623B6A18462C37BD465DF8047B704764
:1047C400000C0246E06A00080024F4000024744B44
:1047D4000000004680B500AFFFF7F4FE0246074B29
:1047E4001B6A03F00F030649CB5C22FA03F3054A64
:1047F4001360044B1B68184680BD00BF000C0246C2
:10480400D06A00080000002080B586B000AF786050
:104814003E4BD3F8943003F00403002B03D0FEF78F
:104824006FFA786119E0394BD3F89430374A43F082
:104834000403C2F89430354BD3F8943003F00403E6
:10484400FB60FB68FEF75CFA7861304BD3F8943078
:104854002E4A23F00403C2F894307B69B3F5403F39
:1048640003D07B69B3F5003F09D17B68B3F1805F66
:1048740002D201233B6133E000233B6130E07B68DB
:10488400B3F1805F08D27B69B3F5803F02D1032383
:104894003B6125E0012335E07B68B3F1005F0FD96C
:1048A4007B69002B09D17B68B3F1405F02D90023F7
:1048B4003B6115E001233B6112E000233B610FE003
:1048C4007B68B3F1805F09D17B69B3F5803F02D186
:1048D40001233B6104E002233B6101E001233B61CE
:1048E4000B4B1B6823F00F0209493B6913430B6010
:1048F400074B1B6803F00F033A699A4201D0012366
:1049040000E0002318461837BD4680BD000C02465F
:10491400002002402DE9B04FBEB000AFC7F8E4005C
:10492400002387F8F330002387F8F230D7F8E43017
:10493400D3E9002322F06044002554EA050309D09A
:10494400D7F8E430D3E9002302F06048994658EAE6
:10495400090304D04FF4D571BC48FCF78AF9D7F8A1
:10496400E430D3E9002302F0010A4FF0000B5AEAC5
:104974000B0324D0D7F8E4301B6D002B13D0D7F8E9
:10498400E4301B6D012B0ED0D7F8E4301B6D022BE5
:1049940009D0D7F8E4301B6D032B04D04FF4D87141
:1049A400AA48FCF766F9AA4BD3F8E03023F00301D8
:1049B400D7F8E4301B6DA64A0B43C2F8E030D7F8B1
:1049C400E430D3E9002302F00203C7F8D83000230F
:1049D400C7F8DC30D7E936120B46134324D0D7F896
:1049E400E4305B6D002B13D0D7F8E4305B6D042BFF
:1049F4000ED0D7F8E4305B6D082B09D0D7F8E4303B
:104A04005B6D0C2B04D04FF4DD719048FCF731F949
:104A14008F4BD3F8E03023F00C01D7F8E4305B6D12
:104A24008B4A0B43C2F8E030D7F8E430D3E90023D3
:104A340002F00403C7F8D0300023C7F8D430D7E914
:104A440034120B46134324D0D7F8E4309B6D002B6B
:104A540013D0D7F8E4309B6D102B0ED0D7F8E43088
:104A64009B6D202B09D0D7F8E4309B6D302B04D0FC
:104A74004FF4E2717548FCF7FCF8754BD3F8E0305D
:104A840023F03001D7F8E4309B6D714A0B43C2F830
:104A9400E030D7F8E430D3E9002302F00803C7F884
:104AA400C8300023C7F8CC30D7E932120B46134381
:104AB40024D0D7F8E430DB6D002B13D0D7F8E430E2
:104AC400DB6D402B0ED0D7F8E430DB6D802B09D0A2
:104AD400D7F8E430DB6DC02B04D04FF4E7715B48AA
:104AE400FCF7C7F85A4BD3F8E03023F0C001D7F8ED
:104AF400E430DB6D564A0B43C2F8E030D7F8E430BB
:104B0400D3E9002302F01003C7F8C0300023C7F82C
:104B1400C430D7E930120B46134327D0D7F8E4301A
:104B24001B6E002B16D0D7F8E4301B6EB3F5807FD4
:104B340010D0D7F8E4301B6EB3F5007F0AD0D7F855
:104B4400E4301B6EB3F5407F04D04FF4EC713F4862
:104B5400FCF78FF83E4BD3F8E03023F44071D7F8DC
:104B6400E4301B6E3A4A0B43C2F8E030D7F8E43025
:104B7400D3E9002302F02003C7F8B8300023C7F8B4
:104B8400BC30D7E92E120B46134329D0D7F8E430B2
:104B94005B6E002B18D0D7F8E4305B6E012B13D07A
:104BA400D7F8E4305B6E022B0ED0D7F8E4305B6E9E
:104BB400032B09D0D7F8E4305B6E042B04D040F209
:104BC400ED112248FCF755F8214BD3F8E83023F0D7
:104BD4000701D7F8E4305B6E1D4A0B43C2F8E83096
:104BE400D7F8E430D3E9002302F04003C7F8B0302B
:104BF4000023C7F8B430D7E92C120B4613432DD049
:104C0400D7F8E4309B6E002B16D0D7F8E4309B6EB7
:104C1400B3F5806F10D0D7F8E4309B6EB3F5006F16
:104C24000AD0D7F8E4309B6EB3F5406F04D040F25D
:104C3400F7110648FCF71DF8054BD3F8E03023F4D0
:104C44004061D7F8E4309B6E04E000BF206A00089E
:104C5400000C0246AB4A0B43C2F8E030D7F8E4300C
:104C6400D3E9002302F08003C7F8A8300023C7F873
:104C7400AC30D7E92A120B46134327D0D7F8E430D7
:104C8400DB6E002B16D0D7F8E430DB6EB3F5805F13
:104C940010D0D7F8E430DB6EB3F5005F0AD0D7F854
:104CA400E430DB6EB3F5405F04D040F20121964856
:104CB400FBF7DFFF934BD3F8E03023F44051D7F8F0
:104CC400E430DB6E8F4A0B43C2F8E030D7F8E430AF
:104CD400D3E9002302F48073C7F8A0300023C7F897
:104CE400A430D7E928120B46134324D0D7F8E43074
:104CF4001B6F002B13D0D7F8E4301B6F402B0ED062
:104D0400D7F8E4301B6F802B09D0D7F8E4301B6F41
:104D1400C02B04D040F20B217B48FBF7AAFF794B50
:104D2400D3F8E83023F0C001D7F8E4301B6F754A9C
:104D34000B43C2F8E830D7F8E430D3E9002302F497
:104D44008003C7F898300023C7F89C30D7E92612AF
:104D54000B46134327D0D7F8E4305B6F002B16D0F3
:104D6400D7F8E4305B6FB3F5804F10D0D7F8E43058
:104D74005B6FB3F5004F0AD0D7F8E4305B6FB3F53F
:104D8400404F04D040F215215F48FBF772FF5D4BA2
:104D9400D3F8E03023F44041D7F8E4305B6F594A4C
:104DA4000B43C2F8E030D7F8E430D3E9002302F42F
:104DB4000073C7F890300023C7F89430D7E9241261
:104DC4000B46134327D0D7F8E4309B6F002B16D043
:104DD400D7F8E4309B6FB3F5806F10D0D7F8E43088
:104DE4009B6FB3F5006F0AD0D7F8E4309B6FB3F52F
:104DF400406F04D040F236214348FBF73AFF414B61
:104E0400D3F8E83023F44061D7F8E4309B6F3D4A8F
:104E14000B43C2F8E830D7F8E430D3E9002302F4B6
:104E24008063C7F888300023C7F88C30D7E9221292
:104E34000B46134327D0D7F8E430DB6F002B16D092
:104E4400D7F8E430DB6FB3F5802F10D0D7F8E43017
:104E5400DB6FB3F5002F0AD0D7F8E430DB6FB3F57E
:104E6400402F04D040F23D212748FBF702FF254B99
:104E7400D3F8E03023F44021D7F8E430DB6F214A43
:104E84000B43C2F8E030D7F8E430D3E9002302F44E
:104E94000063C7F880300023C7F88430D7E92012B4
:104EA4000B46134332D0D7F8E430D3F88030002BCC
:104EB40019D0D7F8E430D3F88030B3F5807F12D01E
:104EC400D7F8E430D3F88030B3F5007F0BD0D7F8AF
:104ED400E430D3F88030B3F5407F04D04FF411713F
:104EE4000948FBF7C6FE074BD3F8E83023F44071BA
:104EF400D7F8E430D3F88030024A0B43C2F8E830E4
:104F040004E000BF000C0246206A0008D7F8E43031
:104F1400D3E9002302F40053BB670023FB67D7E9FE
:104F24001E120B4613436FD0D7F8E430D3F89030F9
:104F3400002B1CD0D7F8E430D3F89030202B16D0B7
:104F4400D7F8E430D3F89030402B10D0D7F8E430C1
:104F5400D3F89030602B0AD0D7F8E430D3F89030EF
:104F6400802B04D04FF41371AB48FBF782FED7F8C3
:104F7400E430D3F89030802B2DD0802B27D8602BB1
:104F84002BD0602B23D8402B06D0402B1FD8002BCE
:104F940009D0202B11D01AE0A04B9B6A9F4A43F4FE
:104FA400803393621AE0D7F8E4300833184600F0EF
:104FB400F3FD034687F8F33010E0D7F8E4302C33E0
:104FC400184600F0D5FE034687F8F33006E00123C7
:104FD40087F8F33002E000BF00E000BF97F8F33039
:104FE400002B0DD18D4BD3F8E43023F0E001D7F83A
:104FF400E430D3F89030894A0B43C2F8E43003E03C
:1050040097F8F33087F8F230D7F8E430D3E9002387
:1050140002F480433B6700237B67D7E91C120B46ED
:1050240013437AD0D7F8E430D3F89430002B20D04F
:10503400D7F8E430D3F89430B3F5807F19D0D7F89B
:10504400E430D3F89430B3F5007F12D0D7F8E430CD
:10505400D3F89430B3F5407F0BD0D7F8E430D3F8CD
:105064009430B3F5806F04D040F27F216A48FBF797
:1050740000FED7F8E430D3F89430B3F5806F33D022
:10508400B3F5806F2CD8B3F5407F2FD0B3F5407FB4
:1050940026D8B3F5007F08D0B3F5007F20D8002BC5
:1050A4000AD0B3F5807F11D01AE05C4B9B6A5B4A4F
:1050B40043F4803393621AE0D7F8E4300833184697
:1050C40000F06AFD034687F8F33010E0D7F8E430C7
:1050D4002C33184600F04CFE034687F8F33006E004
:1050E400012387F8F33002E000BF00E000BF97F827
:1050F400F330002B0DD1494BD3F8E43023F4E061B5
:10510400D7F8E430D3F89430444A0B43C2F8E4307F
:1051140003E097F8F33087F8F230D7F8E430D3E9B6
:10512400002302F40043BB660023FB66D7E91A128E
:105134000B46134378D0D7F8E430D3F8A830002BCB
:1051440027D0D7F8E430D3F8A830B3F5805F20D067
:10515400D7F8E430D3F8A830B3F5005F19D0D7F806
:10516400E430D3F8A830B3F5405F12D0D7F8E43078
:10517400D3F8A830B3F5804F0BD0D7F8E430D3F888
:10518400A830B3F5A04F04D040F2B1212248FBF778
:1051940070FDD7F8E430D3F8A830B3F5A04F28D089
:1051A400B3F5A04F21D8B3F5804F22D0B3F5804F8B
:1051B4001BD8B3F5405F1CD0B3F5405F15D8B3F5E9
:1051C400005F08D0B3F5005F0FD8002B11D0B3F502
:1051D400805F0ED009E0D7F8E4300833184600F0B9
:1051E400DBFC034687F8F33004E0012387F8F3304F
:1051F40000E000BF97F8F330002B11D1074BD3F830
:10520400E83023F4E041D7F8E430D3F8A830034A77
:105214000B43C2F8E83007E0206A0008000C02469D
:1052240097F8F33087F8F230D7F8E430D3E9002365
:1052340002F480333B6600237B66D7E918120B46E1
:10524400134361D0D7F8E430D3F88830002B1CD056
:10525400D7F8E430D3F88830012B16D0D7F8E430EF
:10526400D3F88830022B10D0D7F8E430D3F8883044
:10527400032B0AD0D7F8E430D3F88830042B04D0B9
:1052840040F2D521BB48FBF7F4FCD7F8E430D3F85F
:105294008830042B1DD801A252F823F0DF520008F5
:1052A400B5520008C3520008DF520008DF5200085C
:1052B400B14B9B6AB04A43F4803393620EE0D7F853
:1052C400E4302C33184600F053FD034687F8F330DE
:1052D40004E0012387F8F33000E000BF97F8F330CF
:1052E400002B0DD1A44BD3F8E43023F00701D7F8F9
:1052F400E430D3F88830A04A0B43C2F8E43003E02A
:1053040097F8F33087F8F230D7F8E430D3E9002384
:1053140002F40033BB650023FB65D7E916120B4684
:10532400134371D0D7F8E430D3F88C30002B20D05D
:10533400D7F8E430D3F88C30B3F5803F19D0D7F8E0
:10534400E430D3F88C30B3F5003F12D0D7F8E43012
:10535400D3F88C30B3F5403F0BD0D7F8E430D3F812
:105364008C30B3F5802F04D040F2FB218148FBF749
:1053740080FCD7F8E430D3F88C30B3F5802F28D0F4
:10538400B3F5802F21D8B3F5403F24D0B3F5403F87
:105394001BD8B3F5003F0ED0B3F5003F15D8002B52
:1053A4001BD0B3F5803F10D1734B9B6A724A43F410
:1053B4008033936212E0D7F8E4302C33184600F0BF
:1053C400D7FC034687F8F33008E0012387F8F3306D
:1053D40004E000BF02E000BF00E000BF97F8F33034
:1053E400002B0DD1644BD3F8E83023F4E021D7F837
:1053F400E430D3F88C30604A0B43C2F8E83003E061
:1054040097F8F33087F8F230D7F8E430D3E9002383
:1054140002F480233B6500237B65D7E914120B4615
:10542400134300F0DB80002387F8F130D7F8E43031
:10543400D3F8C030002B19D0D7F8E430D3F8C030FB
:10544400B3F5807F12D0D7F8E430D3F8C030B3F589
:10545400007F0BD0D7F8E430D3F8C030B3F5407FE9
:1054640004D040F221314348FBF703FC424BD3F80C
:10547400943003F00403002B13D13F4BD3F8943042
:105484003D4A43F00403C2F894303B4BD3F89430C4
:1054940003F00403C7F8E830D7F8E830012387F8AD
:1054A400F130364B9B6A354A43F001039362FCF7B3
:1054B40007FAC7F8EC000BE0FCF702FA0246D7F84B
:1054C400EC30D31A022B03D9032387F8F33005E019
:1054D4002A4B9B6A03F00103002BEDD097F8F330BD
:1054E400002B6BD1244BD3F8F03003F44073C7F88E
:1054F400F430D7F8F430002B23D0D7F8E430D3F8C5
:10550400C020D7F8F43093421BD01B4BD3F8F030B3
:1055140023F44073C7F8F430174BD3F8F030164A2D
:1055240043F48033C2F8F030134BD3F8F030124A0E
:1055340023F48033C2F8F0300F4AD7F8F430C2F8BD
:10554400F030D7F8F43003F00103002B1FD0FCF740
:10555400B7F9C7F8EC0013E0FCF7B2F90246D7F844
:10556400EC30D21A41F288339A4209D9032387F8DE
:10557400F3300CE0206A0008000C024600080246E2
:10558400774BD3F8F03003F00203002BE4D097F804
:10559400F330002B0DD1724BD3F8F03023F440716B
:1055A400D7F8E430D3F8C0306D4A0B43C2F8F0307A
:1055B40008E097F8F33087F8F23003E097F8F33017
:1055C40087F8F23097F8F130012B07D1644BD3F808
:1055D4009430634A23F00403C2F89430D7F8E430DB
:1055E400D3E9002302F48013BB640023FB64D7E9EE
:1055F40012120B46134362D0D7F8E430D3F8A0302C
:10560400002B19D0D7F8E430D3F8A030B3F1806F71
:1056140012D0D7F8E430D3F8A030B3F1006F0BD038
:10562400D7F8E430D3F8A030B3F1406F04D04FF48E
:105634005D714C48FBF71DFBD7F8E430D3F8A0307C
:10564400B3F1406F22D0B3F1406F1BD8B3F1006FB8
:1056540011D0B3F1006F15D8002B19D0B3F1806FBE
:1056640010D1D7F8E4300833184600F095FA034611
:1056740087F8F3300DE03A4B9B6A394A43F4003320
:10568400936206E0012387F8F33002E000BF00E0F4
:1056940000BF97F8F330002B0DD1314BD3F8E03035
:1056A40023F04061D7F8E430D3F8A0302C4A0B4300
:1056B400C2F8E03003E097F8F33087F8F230D7F817
:1056C400E430D3E9002302F400233B6400237B6429
:1056D400D7E910120B4613434AD0D7F8E430D3F875
:1056E4009830002B12D0D7F8E430D3F89830B3F5C3
:1056F400805F0BD0D7F8E430D3F89830B3F5005F6F
:1057040004D040F299311748FBF7B3FAD7F8E430E4
:10571400D3F89830B3F5005F0BD0B3F5005F04D82D
:10572400002B08D0B3F5805F07D0012387F8F3304E
:1057340004E000BF02E000BF00E000BF97F8F330D0
:10574400002B11D1064BD3F8E43023F44051D7F8A1
:10575400E430D3F89830024A0B43C2F8E43007E04F
:10576400000C0246206A000897F8F33087F8F230FC
:10577400D7F8E430D3E9002302F48053BB63002359
:10578400FB63D7E90E120B4613431ED0D7F8E4305F
:10579400D3F89C30002B0BD0D7F8E430D3F89C30EE
:1057A400B3F5006F04D040F2BA31AA48FBF761FAAE
:1057B400A94BD3F8E43023F40061D7F8E430D3F8EC
:1057C4009C30A54A0B43C2F8E430D7F8E430D3E95F
:1057D400002302F400133B6300237B63D7E90C121C
:1057E4000B4613432BD0D7F8E430D3F8A430002B66
:1057F4000BD0D7F8E430D3F8A430B3F5804F04D0FD
:1058040040F2C3319348FBF734FAD7F8E430D3F8C5
:10581400A430B3F5804F05D18F4B9B6A8E4A43F475
:10582400803393628C4BD3F8E43023F48041D7F86F
:10583400E430D3F8A430884A0B43C2F8E430D7F8F4
:10584400E430D3E9002302F40003BB620023FB62CB
:10585400D7E90A120B4613432CD0D7F8E430D3F817
:10586400B430002B19D0D7F8E430D3F8B430B3F502
:10587400801F12D0D7F8E430D3F8B430B3F5001F4A
:105884000BD0D7F8E430D3F8B430B3F5401F04D0CC
:1058940040F2D3316F48FBF7ECF96F4BD3F8E030AB
:1058A40023F44012D7F8E430D3F8B4306A491343F0
:1058B400C1F8E030D7F8E430D3E9002302F0807374
:1058C4003B6200237B62D7E908120B4613432CD0BA
:1058D400D7F8E430D3F8B830002B19D0D7F8E43037
:1058E400D3F8B830B3F5803F12D0D7F8E430D3F80A
:1058F400B830B3F5003F0BD0D7F8E430D3F8B83064
:10590400B3F5403F04D040F2DD315248FBF7B1F922
:10591400514BD3F8E03023F44032D7F8E430D3F8D5
:10592400B8304D491343C1F8E030D7F8E430D3E937
:10593400002302F00073BB610023FB61D7E9061268
:105944000B46134329D0D7F8E430D3F8BC30002BEE
:1059540016D0D7F8E430D3F8BC30082B10D0D7F8E1
:10596400E430D3F8BC30102B0AD0D7F8E430D3F8A5
:10597400BC30182B04D040F2E7313648FBF779F9F4
:10598400354BD3F8E83023F01802D7F8E430D3F8D5
:10599400BC3031491343C1F8E830D7F8E430D3E9D7
:1059A400002302F080633B6100237B61D7E904128A
:1059B4000B46134356D0D7F8E430D3F8B030002B5D
:1059C40019D0D7F8E430D3F8B030B3F5801F12D033
:1059D400D7F8E430D3F8B030B3F5001F0BD0D7F8C4
:1059E400E430D3F8B030B3F5401F04D040F2F131C5
:1059F4001848FBF73EF9D7F8E430D3F8B030B3F5E4
:105A0400001F05D1144B9B6A134A43F4003393627D
:105A1400D7F8E430D3F8B030B3F5401F08D1D7F845
:105A2400E4300833184600F0B7F8034687F8F3303B
:105A340097F8F330002B11D1074BD3F8E43023F45B
:105A44004012D7F8E430D3F8B03003491343C1F817
:105A5400E43007E0206A0008000C024697F8F330AF
:105A640087F8F230D7F8E430D3E9002302F000637A
:105A7400BB600023FB60D7E902120B46134353D0EB
:105A8400D7F8E430D3F88430002B12D0D7F8E430C0
:105A9400D3F88430B3F1807F0BD0D7F8E430D3F857
:105AA4008430B3F1007F04D040F23E413848FBF724
:105AB400E0F8D7F8E430D3F88430B3F1007F0ED0A7
:105AC400B3F1007F15D8002B17D0B3F1807F10D12C
